{
  "contractName": "TWLOG",
  "abi": [
    {
      "inputs": [],
      "stateMutability": "nonpayable",
      "type": "constructor"
    },
    {
      "anonymous": false,
      "inputs": [
        {
          "indexed": true,
          "internalType": "address",
          "name": "owner",
          "type": "address"
        },
        {
          "indexed": true,
          "internalType": "address",
          "name": "spender",
          "type": "address"
        },
        {
          "indexed": false,
          "internalType": "uint256",
          "name": "value",
          "type": "uint256"
        }
      ],
      "name": "Approval",
      "type": "event"
    },
    {
      "anonymous": false,
      "inputs": [
        {
          "indexed": true,
          "internalType": "address",
          "name": "from",
          "type": "address"
        },
        {
          "indexed": true,
          "internalType": "address",
          "name": "to",
          "type": "address"
        },
        {
          "indexed": false,
          "internalType": "uint256",
          "name": "value",
          "type": "uint256"
        }
      ],
      "name": "Transfer",
      "type": "event"
    },
    {
      "inputs": [],
      "name": "admin",
      "outputs": [
        {
          "internalType": "address",
          "name": "",
          "type": "address"
        }
      ],
      "stateMutability": "view",
      "type": "function",
      "constant": true
    },
    {
      "inputs": [
        {
          "internalType": "address",
          "name": "owner",
          "type": "address"
        },
        {
          "internalType": "address",
          "name": "spender",
          "type": "address"
        }
      ],
      "name": "allowance",
      "outputs": [
        {
          "internalType": "uint256",
          "name": "",
          "type": "uint256"
        }
      ],
      "stateMutability": "view",
      "type": "function",
      "constant": true
    },
    {
      "inputs": [
        {
          "internalType": "address",
          "name": "spender",
          "type": "address"
        },
        {
          "internalType": "uint256",
          "name": "amount",
          "type": "uint256"
        }
      ],
      "name": "approve",
      "outputs": [
        {
          "internalType": "bool",
          "name": "",
          "type": "bool"
        }
      ],
      "stateMutability": "nonpayable",
      "type": "function"
    },
    {
      "inputs": [
        {
          "internalType": "address",
          "name": "account",
          "type": "address"
        }
      ],
      "name": "balanceOf",
      "outputs": [
        {
          "internalType": "uint256",
          "name": "",
          "type": "uint256"
        }
      ],
      "stateMutability": "view",
      "type": "function",
      "constant": true
    },
    {
      "inputs": [
        {
          "internalType": "address",
          "name": "spender",
          "type": "address"
        },
        {
          "internalType": "uint256",
          "name": "subtractedValue",
          "type": "uint256"
        }
      ],
      "name": "decreaseAllowance",
      "outputs": [
        {
          "internalType": "bool",
          "name": "",
          "type": "bool"
        }
      ],
      "stateMutability": "nonpayable",
      "type": "function"
    },
    {
      "inputs": [
        {
          "internalType": "address",
          "name": "spender",
          "type": "address"
        },
        {
          "internalType": "uint256",
          "name": "addedValue",
          "type": "uint256"
        }
      ],
      "name": "increaseAllowance",
      "outputs": [
        {
          "internalType": "bool",
          "name": "",
          "type": "bool"
        }
      ],
      "stateMutability": "nonpayable",
      "type": "function"
    },
    {
      "inputs": [],
      "name": "name",
      "outputs": [
        {
          "internalType": "string",
          "name": "",
          "type": "string"
        }
      ],
      "stateMutability": "view",
      "type": "function",
      "constant": true
    },
    {
      "inputs": [],
      "name": "symbol",
      "outputs": [
        {
          "internalType": "string",
          "name": "",
          "type": "string"
        }
      ],
      "stateMutability": "view",
      "type": "function",
      "constant": true
    },
    {
      "inputs": [],
      "name": "totalCoin",
      "outputs": [
        {
          "internalType": "uint256",
          "name": "",
          "type": "uint256"
        }
      ],
      "stateMutability": "view",
      "type": "function",
      "constant": true
    },
    {
      "inputs": [],
      "name": "totalMinted",
      "outputs": [
        {
          "internalType": "uint256",
          "name": "",
          "type": "uint256"
        }
      ],
      "stateMutability": "view",
      "type": "function",
      "constant": true
    },
    {
      "inputs": [],
      "name": "totalSupply",
      "outputs": [
        {
          "internalType": "uint256",
          "name": "",
          "type": "uint256"
        }
      ],
      "stateMutability": "view",
      "type": "function",
      "constant": true
    },
    {
      "inputs": [
        {
          "internalType": "address",
          "name": "to",
          "type": "address"
        },
        {
          "internalType": "uint256",
          "name": "amount",
          "type": "uint256"
        }
      ],
      "name": "transfer",
      "outputs": [
        {
          "internalType": "bool",
          "name": "",
          "type": "bool"
        }
      ],
      "stateMutability": "nonpayable",
      "type": "function"
    },
    {
      "inputs": [
        {
          "internalType": "address",
          "name": "from",
          "type": "address"
        },
        {
          "internalType": "address",
          "name": "to",
          "type": "address"
        },
        {
          "internalType": "uint256",
          "name": "amount",
          "type": "uint256"
        }
      ],
      "name": "transferFrom",
      "outputs": [
        {
          "internalType": "bool",
          "name": "",
          "type": "bool"
        }
      ],
      "stateMutability": "nonpayable",
      "type": "function"
    },
    {
      "inputs": [],
      "name": "decimals",
      "outputs": [
        {
          "internalType": "uint8",
          "name": "",
          "type": "uint8"
        }
      ],
      "stateMutability": "pure",
      "type": "function",
      "constant": true
    },
    {
      "inputs": [
        {
          "internalType": "address",
          "name": "to",
          "type": "address"
        },
        {
          "internalType": "uint256",
          "name": "amount",
          "type": "uint256"
        }
      ],
      "name": "mint",
      "outputs": [],
      "stateMutability": "nonpayable",
      "type": "function"
    },
    {
      "inputs": [
        {
          "internalType": "uint256",
          "name": "amount",
          "type": "uint256"
        }
      ],
      "name": "burn",
      "outputs": [],
      "stateMutability": "nonpayable",
      "type": "function"
    }
  ],
  "bytecode": "0x608060405273d0956f8ac0dabfce0b52273bd15d8bd7f9f4e49f600960006101000a81548173ffffffffffffffffffffffffffffffffffffffff021916908373ffffffffffffffffffffffffffffffffffffffff1602179055503480156200006657600080fd5b506040518060400160405280600c81526020017f5772617070656420544c6f6700000000000000000000000000000000000000008152506040518060400160405280600581526020017f54574c4f470000000000000000000000000000000000000000000000000000008152508160039081620000e4919062000585565b508060049081620000f6919062000585565b50505033600560006101000a81548173ffffffffffffffffffffffffffffffffffffffff021916908373ffffffffffffffffffffffffffffffffffffffff16021790555062000174600960009054906101000a900473ffffffffffffffffffffffffffffffffffffffff166509184e72a0006200019460201b60201c565b655af3107a40006007819055506509184e72a00060088190555062000787565b600073ffffffffffffffffffffffffffffffffffffffff168273ffffffffffffffffffffffffffffffffffffffff160362000206576040517f08c379a0000000000000000000000000000000000000000000000000000000008152600401620001fd90620006cd565b60405180910390fd5b6200021a600083836200030160201b60201c565b80600260008282546200022e91906200071e565b92505081905550806000808473ffffffffffffffffffffffffffffffffffffffff1673ffffffffffffffffffffffffffffffffffffffff168152602001908152602001600020600082825401925050819055508173ffffffffffffffffffffffffffffffffffffffff16600073ffffffffffffffffffffffffffffffffffffffff167fddf252ad1be2c89b69c2b068fc378daa952ba7f163c4a11628f55a4df523b3ef83604051620002e191906200076a565b60405180910390a3620002fd600083836200030660201b60201c565b5050565b505050565b505050565b600081519050919050565b7f4e487b7100000000000000000000000000000000000000000000000000000000600052604160045260246000fd5b7f4e487b7100000000000000000000000000000000000000000000000000000000600052602260045260246000fd5b600060028204905060018216806200038d57607f821691505b602082108103620003a357620003a262000345565b5b50919050565b60008190508160005260206000209050919050565b60006020601f8301049050919050565b600082821b905092915050565b6000600883026200040d7fffffffffffffffffffffffffffffffffffffffffffffffffffffffffffffffff82620003ce565b620004198683620003ce565b95508019841693508086168417925050509392505050565b6000819050919050565b6000819050919050565b600062000466620004606200045a8462000431565b6200043b565b62000431565b9050919050565b6000819050919050565b620004828362000445565b6200049a62000491826200046d565b848454620003db565b825550505050565b600090565b620004b1620004a2565b620004be81848462000477565b505050565b5b81811015620004e657620004da600082620004a7565b600181019050620004c4565b5050565b601f8211156200053557620004ff81620003a9565b6200050a84620003be565b810160208510156200051a578190505b620005326200052985620003be565b830182620004c3565b50505b505050565b600082821c905092915050565b60006200055a600019846008026200053a565b1980831691505092915050565b600062000575838362000547565b9150826002028217905092915050565b62000590826200030b565b67ffffffffffffffff811115620005ac57620005ab62000316565b5b620005b8825462000374565b620005c5828285620004ea565b600060209050601f831160018114620005fd5760008415620005e8578287015190505b620005f4858262000567565b86555062000664565b601f1984166200060d86620003a9565b60005b82811015620006375784890151825560018201915060208501945060208101905062000610565b8683101562000657578489015162000653601f89168262000547565b8355505b6001600288020188555050505b505050505050565b600082825260208201905092915050565b7f45524332303a206d696e7420746f20746865207a65726f206164647265737300600082015250565b6000620006b5601f836200066c565b9150620006c2826200067d565b602082019050919050565b60006020820190508181036000830152620006e881620006a6565b9050919050565b7f4e487b7100000000000000000000000000000000000000000000000000000000600052601160045260246000fd5b60006200072b8262000431565b9150620007388362000431565b9250828201905080821115620007535762000752620006ef565b5b92915050565b620007648162000431565b82525050565b600060208201905062000781600083018462000759565b92915050565b611a9580620007976000396000f3fe608060405234801561001057600080fd5b50600436106101005760003560e01c806342966c6811610097578063a457c2d711610066578063a457c2d7146102b1578063a9059cbb146102e1578063dd62ed3e14610311578063f851a4401461034157610100565b806342966c681461022957806370a082311461024557806395d89b4114610275578063a2309ff81461029357610100565b8063313ce567116100d3578063313ce567146101a157806339509351146101bf57806339ce4227146101ef57806340c10f191461020d57610100565b806306fdde0314610105578063095ea7b31461012357806318160ddd1461015357806323b872dd14610171575b600080fd5b61010d61035f565b60405161011a919061107f565b60405180910390f35b61013d6004803603810190610138919061113a565b6103f1565b60405161014a9190611195565b60405180910390f35b61015b610414565b60405161016891906111bf565b60405180910390f35b61018b600480360381019061018691906111da565b61041e565b6040516101989190611195565b60405180910390f35b6101a961044d565b6040516101b69190611249565b60405180910390f35b6101d960048036038101906101d4919061113a565b610456565b6040516101e69190611195565b60405180910390f35b6101f761048d565b60405161020491906111bf565b60405180910390f35b6102276004803603810190610222919061113a565b610493565b005b610243600480360381019061023e9190611264565b6105a2565b005b61025f600480360381019061025a9190611291565b6105c8565b60405161026c91906111bf565b60405180910390f35b61027d610610565b60405161028a919061107f565b60405180910390f35b61029b6106a2565b6040516102a891906111bf565b60405180910390f35b6102cb60048036038101906102c6919061113a565b6106a8565b6040516102d89190611195565b60405180910390f35b6102fb60048036038101906102f6919061113a565b61071f565b6040516103089190611195565b60405180910390f35b61032b600480360381019061032691906112be565b610742565b60405161033891906111bf565b60405180910390f35b6103496107c9565b604051610356919061130d565b60405180910390f35b60606003805461036e90611357565b80601f016020809104026020016040519081016040528092919081815260200182805461039a90611357565b80156103e75780601f106103bc576101008083540402835291602001916103e7565b820191906000526020600020905b8154815290600101906020018083116103ca57829003601f168201915b5050505050905090565b6000806103fc6107ef565b90506104098185856107f7565b600191505092915050565b6000600254905090565b6000806104296107ef565b90506104368582856109c0565b610441858585610a4c565b60019150509392505050565b60006008905090565b6000806104616107ef565b90506104828185856104738589610742565b61047d91906113b7565b6107f7565b600191505092915050565b60075481565b6000816008546104a391906113b7565b9050600560009054906101000a900473ffffffffffffffffffffffffffffffffffffffff1673ffffffffffffffffffffffffffffffffffffffff163373ffffffffffffffffffffffffffffffffffffffff1614610535576040517f08c379a000000000000000000000000000000000000000000000000000000000815260040161052c90611437565b60405180910390fd5b60075481111561057a576040517f08c379a0000000000000000000000000000000000000000000000000000000008152600401610571906114a3565b60405180910390fd5b6105848383610cc2565b816008600082825461059691906113b7565b92505081905550505050565b6105ac3382610e18565b80600860008282546105be91906114c3565b9250508190555050565b60008060008373ffffffffffffffffffffffffffffffffffffffff1673ffffffffffffffffffffffffffffffffffffffff168152602001908152602001600020549050919050565b60606004805461061f90611357565b80601f016020809104026020016040519081016040528092919081815260200182805461064b90611357565b80156106985780601f1061066d57610100808354040283529160200191610698565b820191906000526020600020905b81548152906001019060200180831161067b57829003601f168201915b5050505050905090565b60085481565b6000806106b36107ef565b905060006106c18286610742565b905083811015610706576040517f08c379a00000000000000000000000000000000000000000000000000000000081526004016106fd90611569565b60405180910390fd5b61071382868684036107f7565b60019250505092915050565b60008061072a6107ef565b9050610737818585610a4c565b600191505092915050565b6000600160008473ffffffffffffffffffffffffffffffffffffffff1673ffffffffffffffffffffffffffffffffffffffff16815260200190815260200160002060008373ffffffffffffffffffffffffffffffffffffffff1673ffffffffffffffffffffffffffffffffffffffff16815260200190815260200160002054905092915050565b600560009054906101000a900473ffffffffffffffffffffffffffffffffffffffff1681565b600033905090565b600073ffffffffffffffffffffffffffffffffffffffff168373ffffffffffffffffffffffffffffffffffffffff1603610866576040517f08c379a000000000000000000000000000000000000000000000000000000000815260040161085d906115fb565b60405180910390fd5b600073ffffffffffffffffffffffffffffffffffffffff168273ffffffffffffffffffffffffffffffffffffffff16036108d5576040517f08c379a00000000000000000000000000000000000000000000000000000000081526004016108cc9061168d565b60405180910390fd5b80600160008573ffffffffffffffffffffffffffffffffffffffff1673ffffffffffffffffffffffffffffffffffffffff16815260200190815260200160002060008473ffffffffffffffffffffffffffffffffffffffff1673ffffffffffffffffffffffffffffffffffffffff168152602001908152602001600020819055508173ffffffffffffffffffffffffffffffffffffffff168373ffffffffffffffffffffffffffffffffffffffff167f8c5be1e5ebec7d5bd14f71427d1e84f3dd0314c0f7b2291e5b200ac8c7c3b925836040516109b391906111bf565b60405180910390a3505050565b60006109cc8484610742565b90507fffffffffffffffffffffffffffffffffffffffffffffffffffffffffffffffff8114610a465781811015610a38576040517f08c379a0000000000000000000000000000000000000000000000000000000008152600401610a2f906116f9565b60405180910390fd5b610a4584848484036107f7565b5b50505050565b600073ffffffffffffffffffffffffffffffffffffffff168373ffffffffffffffffffffffffffffffffffffffff1603610abb576040517f08c379a0000000000000000000000000000000000000000000000000000000008152600401610ab29061178b565b60405180910390fd5b600073ffffffffffffffffffffffffffffffffffffffff168273ffffffffffffffffffffffffffffffffffffffff1603610b2a576040517f08c379a0000000000000000000000000000000000000000000000000000000008152600401610b219061181d565b60405180910390fd5b610b35838383610fe5565b60008060008573ffffffffffffffffffffffffffffffffffffffff1673ffffffffffffffffffffffffffffffffffffffff16815260200190815260200160002054905081811015610bbb576040517f08c379a0000000000000000000000000000000000000000000000000000000008152600401610bb2906118af565b60405180910390fd5b8181036000808673ffffffffffffffffffffffffffffffffffffffff1673ffffffffffffffffffffffffffffffffffffffff16815260200190815260200160002081905550816000808573ffffffffffffffffffffffffffffffffffffffff1673ffffffffffffffffffffffffffffffffffffffff168152602001908152602001600020600082825401925050819055508273ffffffffffffffffffffffffffffffffffffffff168473ffffffffffffffffffffffffffffffffffffffff167fddf252ad1be2c89b69c2b068fc378daa952ba7f163c4a11628f55a4df523b3ef84604051610ca991906111bf565b60405180910390a3610cbc848484610fea565b50505050565b600073ffffffffffffffffffffffffffffffffffffffff168273ffffffffffffffffffffffffffffffffffffffff1603610d31576040517f08c379a0000000000000000000000000000000000000000000000000000000008152600401610d289061191b565b60405180910390fd5b610d3d60008383610fe5565b8060026000828254610d4f91906113b7565b92505081905550806000808473ffffffffffffffffffffffffffffffffffffffff1673ffffffffffffffffffffffffffffffffffffffff168152602001908152602001600020600082825401925050819055508173ffffffffffffffffffffffffffffffffffffffff16600073ffffffffffffffffffffffffffffffffffffffff167fddf252ad1be2c89b69c2b068fc378daa952ba7f163c4a11628f55a4df523b3ef83604051610e0091906111bf565b60405180910390a3610e1460008383610fea565b5050565b600073ffffffffffffffffffffffffffffffffffffffff168273ffffffffffffffffffffffffffffffffffffffff1603610e87576040517f08c379a0000000000000000000000000000000000000000000000000000000008152600401610e7e906119ad565b60405180910390fd5b610e9382600083610fe5565b60008060008473ffffffffffffffffffffffffffffffffffffffff1673ffffffffffffffffffffffffffffffffffffffff16815260200190815260200160002054905081811015610f19576040517f08c379a0000000000000000000000000000000000000000000000000000000008152600401610f1090611a3f565b60405180910390fd5b8181036000808573ffffffffffffffffffffffffffffffffffffffff1673ffffffffffffffffffffffffffffffffffffffff1681526020019081526020016000208190555081600260008282540392505081905550600073ffffffffffffffffffffffffffffffffffffffff168373ffffffffffffffffffffffffffffffffffffffff167fddf252ad1be2c89b69c2b068fc378daa952ba7f163c4a11628f55a4df523b3ef84604051610fcc91906111bf565b60405180910390a3610fe083600084610fea565b505050565b505050565b505050565b600081519050919050565b600082825260208201905092915050565b60005b8381101561102957808201518184015260208101905061100e565b60008484015250505050565b6000601f19601f8301169050919050565b600061105182610fef565b61105b8185610ffa565b935061106b81856020860161100b565b61107481611035565b840191505092915050565b600060208201905081810360008301526110998184611046565b905092915050565b600080fd5b600073ffffffffffffffffffffffffffffffffffffffff82169050919050565b60006110d1826110a6565b9050919050565b6110e1816110c6565b81146110ec57600080fd5b50565b6000813590506110fe816110d8565b92915050565b6000819050919050565b61111781611104565b811461112257600080fd5b50565b6000813590506111348161110e565b92915050565b60008060408385031215611151576111506110a1565b5b600061115f858286016110ef565b925050602061117085828601611125565b9150509250929050565b60008115159050919050565b61118f8161117a565b82525050565b60006020820190506111aa6000830184611186565b92915050565b6111b981611104565b82525050565b60006020820190506111d460008301846111b0565b92915050565b6000806000606084860312156111f3576111f26110a1565b5b6000611201868287016110ef565b9350506020611212868287016110ef565b925050604061122386828701611125565b9150509250925092565b600060ff82169050919050565b6112438161122d565b82525050565b600060208201905061125e600083018461123a565b92915050565b60006020828403121561127a576112796110a1565b5b600061128884828501611125565b91505092915050565b6000602082840312156112a7576112a66110a1565b5b60006112b5848285016110ef565b91505092915050565b600080604083850312156112d5576112d46110a1565b5b60006112e3858286016110ef565b92505060206112f4858286016110ef565b9150509250929050565b611307816110c6565b82525050565b600060208201905061132260008301846112fe565b92915050565b7f4e487b7100000000000000000000000000000000000000000000000000000000600052602260045260246000fd5b6000600282049050600182168061136f57607f821691505b60208210810361138257611381611328565b5b50919050565b7f4e487b7100000000000000000000000000000000000000000000000000000000600052601160045260246000fd5b60006113c282611104565b91506113cd83611104565b92508282019050808211156113e5576113e4611388565b5b92915050565b7f6f6e6c792061646d696e2063616e206163636573730000000000000000000000600082015250565b6000611421601583610ffa565b915061142c826113eb565b602082019050919050565b6000602082019050818103600083015261145081611414565b9050919050565b7f4c696d6974206973206f6e6c792031206d696c6c696f6e2e0000000000000000600082015250565b600061148d601883610ffa565b915061149882611457565b602082019050919050565b600060208201905081810360008301526114bc81611480565b9050919050565b60006114ce82611104565b91506114d983611104565b92508282039050818111156114f1576114f0611388565b5b92915050565b7f45524332303a2064656372656173656420616c6c6f77616e63652062656c6f7760008201527f207a65726f000000000000000000000000000000000000000000000000000000602082015250565b6000611553602583610ffa565b915061155e826114f7565b604082019050919050565b6000602082019050818103600083015261158281611546565b9050919050565b7f45524332303a20617070726f76652066726f6d20746865207a65726f2061646460008201527f7265737300000000000000000000000000000000000000000000000000000000602082015250565b60006115e5602483610ffa565b91506115f082611589565b604082019050919050565b60006020820190508181036000830152611614816115d8565b9050919050565b7f45524332303a20617070726f766520746f20746865207a65726f20616464726560008201527f7373000000000000000000000000000000000000000000000000000000000000602082015250565b6000611677602283610ffa565b91506116828261161b565b604082019050919050565b600060208201905081810360008301526116a68161166a565b9050919050565b7f45524332303a20696e73756666696369656e7420616c6c6f77616e6365000000600082015250565b60006116e3601d83610ffa565b91506116ee826116ad565b602082019050919050565b60006020820190508181036000830152611712816116d6565b9050919050565b7f45524332303a207472616e736665722066726f6d20746865207a65726f20616460008201527f6472657373000000000000000000000000000000000000000000000000000000602082015250565b6000611775602583610ffa565b915061178082611719565b604082019050919050565b600060208201905081810360008301526117a481611768565b9050919050565b7f45524332303a207472616e7366657220746f20746865207a65726f206164647260008201527f6573730000000000000000000000000000000000000000000000000000000000602082015250565b6000611807602383610ffa565b9150611812826117ab565b604082019050919050565b60006020820190508181036000830152611836816117fa565b9050919050565b7f45524332303a207472616e7366657220616d6f756e742065786365656473206260008201527f616c616e63650000000000000000000000000000000000000000000000000000602082015250565b6000611899602683610ffa565b91506118a48261183d565b604082019050919050565b600060208201905081810360008301526118c88161188c565b9050919050565b7f45524332303a206d696e7420746f20746865207a65726f206164647265737300600082015250565b6000611905601f83610ffa565b9150611910826118cf565b602082019050919050565b60006020820190508181036000830152611934816118f8565b9050919050565b7f45524332303a206275726e2066726f6d20746865207a65726f2061646472657360008201527f7300000000000000000000000000000000000000000000000000000000000000602082015250565b6000611997602183610ffa565b91506119a28261193b565b604082019050919050565b600060208201905081810360008301526119c68161198a565b9050919050565b7f45524332303a206275726e20616d6f756e7420657863656564732062616c616e60008201527f6365000000000000000000000000000000000000000000000000000000000000602082015250565b6000611a29602283610ffa565b9150611a34826119cd565b604082019050919050565b60006020820190508181036000830152611a5881611a1c565b905091905056fea26469706673582212203ab7e3add26ec17c38f63c6537ccb6e0256648265b3a98838e8629b9d7b1c41764736f6c63430008110033",
  "immutableReferences": {},
  "source": "// SPDX-License-Identifier: MIT\npragma solidity ^0.8.15;\n\nimport '@openzeppelin/contracts/token/ERC20/ERC20.sol';\n\n\ncontract TWLOG is ERC20 {\n    address public admin;\n    mapping (address => uint) balances;\n    uint public totalCoin;\n    uint public totalMinted;\n    address dispatcher = 0xd0956f8Ac0DABFCE0B52273Bd15d8BD7f9f4e49F;\n\n    constructor() ERC20('Wrapped TLog', 'TWLOG') {\n        admin = msg.sender;\n        _mint(dispatcher, 100000 * 10 ** 8);\n        totalCoin = 1000000 * 10 ** 8;\n        totalMinted = 100000 * 10 ** 8;\n    }\n\n    function decimals() public pure override returns (uint8) {\n        return 8;\n    }\n\n    function mint(address to, uint amount) external {\n        uint net = totalMinted + amount;\n        require(msg.sender == admin, \"only admin can access\");\n        require(net <= totalCoin, \"Limit is only 1 million.\");\n        _mint(to, amount);\n        totalMinted += amount;\n    }\n\n    function burn(uint amount) external {\n        _burn(msg.sender, amount);\n        totalMinted -= amount;\n    }\n\n} ",
  "sourcePath": "/media/projects/Funk/wlog/wlog-frontend/contracts/TWLOG.sol",
  "compiler": {
    "name": "solc",
    "version": "0.8.17+commit.8df45f5f.Emscripten.clang"
  },
  "schemaVersion": "3.4.11",
  "updatedAt": "2023-01-05T01:31:29.175Z",
  "networkType": "ethereum",
  "devdoc": {
    "kind": "dev",
    "methods": {
      "allowance(address,address)": {
        "details": "See {IERC20-allowance}."
      },
      "approve(address,uint256)": {
        "details": "See {IERC20-approve}. NOTE: If `amount` is the maximum `uint256`, the allowance is not updated on `transferFrom`. This is semantically equivalent to an infinite approval. Requirements: - `spender` cannot be the zero address."
      },
      "balanceOf(address)": {
        "details": "See {IERC20-balanceOf}."
      },
      "decimals()": {
        "details": "Returns the number of decimals used to get its user representation. For example, if `decimals` equals `2`, a balance of `505` tokens should be displayed to a user as `5.05` (`505 / 10 ** 2`). Tokens usually opt for a value of 18, imitating the relationship between Ether and Wei. This is the value {ERC20} uses, unless this function is overridden; NOTE: This information is only used for _display_ purposes: it in no way affects any of the arithmetic of the contract, including {IERC20-balanceOf} and {IERC20-transfer}."
      },
      "decreaseAllowance(address,uint256)": {
        "details": "Atomically decreases the allowance granted to `spender` by the caller. This is an alternative to {approve} that can be used as a mitigation for problems described in {IERC20-approve}. Emits an {Approval} event indicating the updated allowance. Requirements: - `spender` cannot be the zero address. - `spender` must have allowance for the caller of at least `subtractedValue`."
      },
      "increaseAllowance(address,uint256)": {
        "details": "Atomically increases the allowance granted to `spender` by the caller. This is an alternative to {approve} that can be used as a mitigation for problems described in {IERC20-approve}. Emits an {Approval} event indicating the updated allowance. Requirements: - `spender` cannot be the zero address."
      },
      "name()": {
        "details": "Returns the name of the token."
      },
      "symbol()": {
        "details": "Returns the symbol of the token, usually a shorter version of the name."
      },
      "totalSupply()": {
        "details": "See {IERC20-totalSupply}."
      },
      "transfer(address,uint256)": {
        "details": "See {IERC20-transfer}. Requirements: - `to` cannot be the zero address. - the caller must have a balance of at least `amount`."
      },
      "transferFrom(address,address,uint256)": {
        "details": "See {IERC20-transferFrom}. Emits an {Approval} event indicating the updated allowance. This is not required by the EIP. See the note at the beginning of {ERC20}. NOTE: Does not update the allowance if the current allowance is the maximum `uint256`. Requirements: - `from` and `to` cannot be the zero address. - `from` must have a balance of at least `amount`. - the caller must have allowance for ``from``'s tokens of at least `amount`."
      }
    },
    "version": 1
  },
  "userdoc": {
    "kind": "user",
    "methods": {},
    "version": 1
  }
}